{
  "contractName": "crowFunding",
  "abi": [
    {
      "anonymous": false,
      "inputs": [
        {
          "indexed": false,
          "internalType": "address",
          "name": "editor",
          "type": "address"
        },
        {
          "indexed": false,
          "internalType": "string",
          "name": "projectId",
          "type": "string"
        },
        {
          "indexed": false,
          "internalType": "enum crowFunding.projectState",
          "name": "NewState",
          "type": "uint8"
        }
      ],
      "name": "ChangeProject",
      "type": "event"
    },
    {
      "anonymous": false,
      "inputs": [
        {
          "indexed": false,
          "internalType": "address",
          "name": "donador",
          "type": "address"
        },
        {
          "indexed": false,
          "internalType": "string",
          "name": "projectId",
          "type": "string"
        },
        {
          "indexed": false,
          "internalType": "uint256",
          "name": "donacion",
          "type": "uint256"
        },
        {
          "indexed": false,
          "internalType": "uint256",
          "name": "gasDonacion",
          "type": "uint256"
        }
      ],
      "name": "FundProject",
      "type": "event"
    },
    {
      "anonymous": false,
      "inputs": [
        {
          "indexed": false,
          "internalType": "string",
          "name": "projectsId",
          "type": "string"
        },
        {
          "indexed": false,
          "internalType": "string",
          "name": "projectsName",
          "type": "string"
        },
        {
          "indexed": false,
          "internalType": "string",
          "name": "projectsDescription",
          "type": "string"
        },
        {
          "indexed": false,
          "internalType": "uint256",
          "name": "projectsDreamFounds",
          "type": "uint256"
        }
      ],
      "name": "projectCreated",
      "type": "event"
    },
    {
      "inputs": [
        {
          "internalType": "string",
          "name": "",
          "type": "string"
        },
        {
          "internalType": "uint256",
          "name": "",
          "type": "uint256"
        }
      ],
      "name": "contributions",
      "outputs": [
        {
          "internalType": "address",
          "name": "contributor",
          "type": "address"
        },
        {
          "internalType": "uint256",
          "name": "value",
          "type": "uint256"
        }
      ],
      "stateMutability": "view",
      "type": "function"
    },
    {
      "inputs": [
        {
          "internalType": "uint256",
          "name": "",
          "type": "uint256"
        }
      ],
      "name": "projects",
      "outputs": [
        {
          "internalType": "string",
          "name": "id",
          "type": "string"
        },
        {
          "internalType": "string",
          "name": "name",
          "type": "string"
        },
        {
          "internalType": "string",
          "name": "description",
          "type": "string"
        },
        {
          "internalType": "address payable",
          "name": "author",
          "type": "address"
        },
        {
          "internalType": "enum crowFunding.projectState",
          "name": "state",
          "type": "uint8"
        },
        {
          "internalType": "uint256",
          "name": "dreamFounds",
          "type": "uint256"
        },
        {
          "internalType": "uint256",
          "name": "totalFunds",
          "type": "uint256"
        }
      ],
      "stateMutability": "view",
      "type": "function"
    },
    {
      "inputs": [
        {
          "internalType": "string",
          "name": "id",
          "type": "string"
        },
        {
          "internalType": "string",
          "name": "name",
          "type": "string"
        },
        {
          "internalType": "string",
          "name": "description",
          "type": "string"
        },
        {
          "internalType": "uint256",
          "name": "dreamFounds",
          "type": "uint256"
        }
      ],
      "name": "createProject",
      "outputs": [],
      "stateMutability": "nonpayable",
      "type": "function"
    },
    {
      "inputs": [
        {
          "internalType": "uint256",
          "name": "projectIndex",
          "type": "uint256"
        }
      ],
      "name": "fundProject",
      "outputs": [],
      "stateMutability": "payable",
      "type": "function"
    },
    {
      "inputs": [
        {
          "internalType": "enum crowFunding.projectState",
          "name": "newState",
          "type": "uint8"
        },
        {
          "internalType": "uint256",
          "name": "projectIndex",
          "type": "uint256"
        }
      ],
      "name": "changeProject",
      "outputs": [],
      "stateMutability": "nonpayable",
      "type": "function"
    }
  ],
  "bytecode": "0x608060405234801561001057600080fd5b50611edf806100206000396000f3fe60806040526004361061004a5760003560e01c8063107046bd1461004f5780631ca73896146100925780636c563abe146100bb5780637f3fcdd9146100d7578063b59e0e1e14610115575b600080fd5b34801561005b57600080fd5b506100766004803603810190610071919061154f565b61013e565b604051610089979695949392919061184b565b60405180910390f35b34801561009e57600080fd5b506100b960048036038101906100b4919061142a565b610355565b005b6100d560048036038101906100d0919061154f565b610622565b005b3480156100e357600080fd5b506100fe60048036038101906100f991906114f3565b610cb9565b60405161010c9291906117c2565b60405180910390f35b34801561012157600080fd5b5061013c600480360381019061013791906113ea565b610d30565b005b6000818154811061014e57600080fd5b906000526020600020906006020160009150905080600001805461017190611b17565b80601f016020809104026020016040519081016040528092919081815260200182805461019d90611b17565b80156101ea5780601f106101bf576101008083540402835291602001916101ea565b820191906000526020600020905b8154815290600101906020018083116101cd57829003601f168201915b5050505050908060010180546101ff90611b17565b80601f016020809104026020016040519081016040528092919081815260200182805461022b90611b17565b80156102785780601f1061024d57610100808354040283529160200191610278565b820191906000526020600020905b81548152906001019060200180831161025b57829003601f168201915b50505050509080600201805461028d90611b17565b80601f01602080910402602001604051908101604052809291908181526020018280546102b990611b17565b80156103065780601f106102db57610100808354040283529160200191610306565b820191906000526020600020905b8154815290600101906020018083116102e957829003601f168201915b5050505050908060030160009054906101000a900473ffffffffffffffffffffffffffffffffffffffff16908060030160149054906101000a900460ff16908060040154908060050154905087565b60008111610398576040517f08c379a000000000000000000000000000000000000000000000000000000000815260040161038f906118ef565b60405180910390fd5b60006040518060e0016040528089898080601f016020809104026020016040519081016040528093929190818152602001838380828437600081840152601f19601f82011690508083019250505050505050815260200187878080601f016020809104026020016040519081016040528093929190818152602001838380828437600081840152601f19601f82011690508083019250505050505050815260200185858080601f016020809104026020016040519081016040528093929190818152602001838380828437600081840152601f19601f8201169050808301925050505050505081526020013373ffffffffffffffffffffffffffffffffffffffff168152602001600060018111156104b3576104b2611ba9565b5b8152602001838152602001600081525090506000819080600181540180825580915050600190039060005260206000209060060201600090919091909150600082015181600001908051906020019061050d929190611257565b50602082015181600101908051906020019061052a929190611257565b506040820151816002019080519060200190610547929190611257565b5060608201518160030160006101000a81548173ffffffffffffffffffffffffffffffffffffffff021916908373ffffffffffffffffffffffffffffffffffffffff16021790555060808201518160030160146101000a81548160ff021916908360018111156105ba576105b9611ba9565b5b021790555060a0820151816004015560c0820151816005015550507f8de33169a6dd5876748ee7ef90d15da19c24de60156f7b95ba73fb71cc3ab8528888888888888860405161061097969594939291906117eb565b60405180910390a15050505050505050565b803373ffffffffffffffffffffffffffffffffffffffff166000828154811061064e5761064d611c07565b5b906000526020600020906006020160030160009054906101000a900473ffffffffffffffffffffffffffffffffffffffff1673ffffffffffffffffffffffffffffffffffffffff1614156106d7576040517f08c379a00000000000000000000000000000000000000000000000000000000081526004016106ce906118cf565b60405180910390fd5b6000341161071a576040517f08c379a00000000000000000000000000000000000000000000000000000000081526004016107119061194f565b60405180910390fd5b600080838154811061072f5761072e611c07565b5b90600052602060002090600602016040518060e001604052908160008201805461075890611b17565b80601f016020809104026020016040519081016040528092919081815260200182805461078490611b17565b80156107d15780601f106107a6576101008083540402835291602001916107d1565b820191906000526020600020905b8154815290600101906020018083116107b457829003601f168201915b505050505081526020016001820180546107ea90611b17565b80601f016020809104026020016040519081016040528092919081815260200182805461081690611b17565b80156108635780601f1061083857610100808354040283529160200191610863565b820191906000526020600020905b81548152906001019060200180831161084657829003601f168201915b5050505050815260200160028201805461087c90611b17565b80601f01602080910402602001604051908101604052809291908181526020018280546108a890611b17565b80156108f55780601f106108ca576101008083540402835291602001916108f5565b820191906000526020600020905b8154815290600101906020018083116108d857829003601f168201915b505050505081526020016003820160009054906101000a900473ffffffffffffffffffffffffffffffffffffffff1673ffffffffffffffffffffffffffffffffffffffff1673ffffffffffffffffffffffffffffffffffffffff1681526020016003820160149054906101000a900460ff16600181111561097957610978611ba9565b5b600181111561098b5761098a611ba9565b5b8152602001600482015481526020016005820154815250509050600060018111156109b9576109b8611ba9565b5b600084815481106109cd576109cc611c07565b5b906000526020600020906006020160030160149054906101000a900460ff1660018111156109fe576109fd611ba9565b5b14610a3e576040517f08c379a0000000000000000000000000000000000000000000000000000000008152600401610a359061196f565b60405180910390fd5b806060015173ffffffffffffffffffffffffffffffffffffffff166108fc349081150290604051600060405180830381858888f19350505050158015610a88573d6000803e3d6000fd5b50348160c001818151610a9b9190611a0c565b915081815250508060008481548110610ab757610ab6611c07565b5b90600052602060002090600602016000820151816000019080519060200190610ae1929190611257565b506020820151816001019080519060200190610afe929190611257565b506040820151816002019080519060200190610b1b929190611257565b5060608201518160030160006101000a81548173ffffffffffffffffffffffffffffffffffffffff021916908373ffffffffffffffffffffffffffffffffffffffff16021790555060808201518160030160146101000a81548160ff02191690836001811115610b8e57610b8d611ba9565b5b021790555060a0820151816004015560c0820151816005015590505060018160000151604051610bbe9190611721565b908152602001604051809103902060405180604001604052803373ffffffffffffffffffffffffffffffffffffffff16815260200134815250908060018154018082558091505060019003906000526020600020906002020160009091909190915060008201518160000160006101000a81548173ffffffffffffffffffffffffffffffffffffffff021916908373ffffffffffffffffffffffffffffffffffffffff1602179055506020820151816001015550507f1ed1f6c816c0f97dc9af1c3ae94df755ec76e28bd5210f0590f7e615fb7b6c23338260000151343a604051610cac9493929190611776565b60405180910390a1505050565b6001828051602081018201805184825260208301602085012081835280955050505050508181548110610ceb57600080fd5b9060005260206000209060020201600091509150508060000160009054906101000a900473ffffffffffffffffffffffffffffffffffffffff16908060010154905082565b803373ffffffffffffffffffffffffffffffffffffffff1660008281548110610d5c57610d5b611c07565b5b906000526020600020906006020160030160009054906101000a900473ffffffffffffffffffffffffffffffffffffffff1673ffffffffffffffffffffffffffffffffffffffff1614610de4576040517f08c379a0000000000000000000000000000000000000000000000000000000008152600401610ddb9061192f565b60405180910390fd5b6000808381548110610df957610df8611c07565b5b90600052602060002090600602016040518060e0016040529081600082018054610e2290611b17565b80601f0160208091040260200160405190810160405280929190818152602001828054610e4e90611b17565b8015610e9b5780601f10610e7057610100808354040283529160200191610e9b565b820191906000526020600020905b815481529060010190602001808311610e7e57829003601f168201915b50505050508152602001600182018054610eb490611b17565b80601f0160208091040260200160405190810160405280929190818152602001828054610ee090611b17565b8015610f2d5780601f10610f0257610100808354040283529160200191610f2d565b820191906000526020600020905b815481529060010190602001808311610f1057829003601f168201915b50505050508152602001600282018054610f4690611b17565b80601f0160208091040260200160405190810160405280929190818152602001828054610f7290611b17565b8015610fbf5780601f10610f9457610100808354040283529160200191610fbf565b820191906000526020600020905b815481529060010190602001808311610fa257829003601f168201915b505050505081526020016003820160009054906101000a900473ffffffffffffffffffffffffffffffffffffffff1673ffffffffffffffffffffffffffffffffffffffff1673ffffffffffffffffffffffffffffffffffffffff1681526020016003820160149054906101000a900460ff16600181111561104357611042611ba9565b5b600181111561105557611054611ba9565b5b815260200160048201548152602001600582015481525050905083600181111561108257611081611ba9565b5b8160800151600181111561109957611098611ba9565b5b14156110da576040517f08c379a00000000000000000000000000000000000000000000000000000000081526004016110d19061190f565b60405180910390fd5b83816080019060018111156110f2576110f1611ba9565b5b9081600181111561110657611105611ba9565b5b81525050806000848154811061111f5761111e611c07565b5b90600052602060002090600602016000820151816000019080519060200190611149929190611257565b506020820151816001019080519060200190611166929190611257565b506040820151816002019080519060200190611183929190611257565b5060608201518160030160006101000a81548173ffffffffffffffffffffffffffffffffffffffff021916908373ffffffffffffffffffffffffffffffffffffffff16021790555060808201518160030160146101000a81548160ff021916908360018111156111f6576111f5611ba9565b5b021790555060a0820151816004015560c082015181600501559050507fe687942ab115baa2ccf1b6fe4310849d0fde11bded5d93bfe07fdbccd3640b6c3382600001518660405161124993929190611738565b60405180910390a150505050565b82805461126390611b17565b90600052602060002090601f01602090048101928261128557600085556112cc565b82601f1061129e57805160ff19168380011785556112cc565b828001600101855582156112cc579182015b828111156112cb5782518255916020019190600101906112b0565b5b5090506112d991906112dd565b5090565b5b808211156112f65760008160009055506001016112de565b5090565b600061130d611308846119b4565b61198f565b90508281526020810184848401111561132957611328611c74565b5b611334848285611ad5565b509392505050565b60008135905061134b81611e82565b92915050565b60008083601f84011261136757611366611c6a565b5b8235905067ffffffffffffffff81111561138457611383611c65565b5b6020830191508360018202830111156113a05761139f611c6f565b5b9250929050565b600082601f8301126113bc576113bb611c6a565b5b81356113cc8482602086016112fa565b91505092915050565b6000813590506113e481611e92565b92915050565b6000806040838503121561140157611400611c7e565b5b600061140f8582860161133c565b9250506020611420858286016113d5565b9150509250929050565b60008060008060008060006080888a03121561144957611448611c7e565b5b600088013567ffffffffffffffff81111561146757611466611c79565b5b6114738a828b01611351565b9750975050602088013567ffffffffffffffff81111561149657611495611c79565b5b6114a28a828b01611351565b9550955050604088013567ffffffffffffffff8111156114c5576114c4611c79565b5b6114d18a828b01611351565b935093505060606114e48a828b016113d5565b91505092959891949750929550565b6000806040838503121561150a57611509611c7e565b5b600083013567ffffffffffffffff81111561152857611527611c79565b5b611534858286016113a7565b9250506020611545858286016113d5565b9150509250929050565b60006020828403121561156557611564611c7e565b5b6000611573848285016113d5565b91505092915050565b61158581611a74565b82525050565b61159481611a62565b82525050565b6115a381611ac3565b82525050565b60006115b583856119f0565b93506115c2838584611ad5565b6115cb83611c83565b840190509392505050565b60006115e1826119e5565b6115eb81856119f0565b93506115fb818560208601611ae4565b61160481611c83565b840191505092915050565b600061161a826119e5565b6116248185611a01565b9350611634818560208601611ae4565b80840191505092915050565b600061164d6035836119f0565b915061165882611c94565b604082019050919050565b6000611670601e836119f0565b915061167b82611ce3565b602082019050919050565b60006116936057836119f0565b915061169e82611d0c565b606082019050919050565b60006116b66031836119f0565b91506116c182611d81565b604082019050919050565b60006116d9602b836119f0565b91506116e482611dd0565b604082019050919050565b60006116fc6031836119f0565b915061170782611e1f565b604082019050919050565b61171b81611ab9565b82525050565b600061172d828461160f565b915081905092915050565b600060608201905061174d600083018661158b565b818103602083015261175f81856115d6565b905061176e604083018461159a565b949350505050565b600060808201905061178b600083018761158b565b818103602083015261179d81866115d6565b90506117ac6040830185611712565b6117b96060830184611712565b95945050505050565b60006040820190506117d7600083018561158b565b6117e46020830184611712565b9392505050565b6000608082019050818103600083015261180681898b6115a9565b9050818103602083015261181b8187896115a9565b905081810360408301526118308185876115a9565b905061183f6060830184611712565b98975050505050505050565b600060e0820190508181036000830152611865818a6115d6565b9050818103602083015261187981896115d6565b9050818103604083015261188d81886115d6565b905061189c606083018761157c565b6118a9608083018661159a565b6118b660a0830185611712565b6118c360c0830184611712565b98975050505050505050565b600060208201905081810360008301526118e881611640565b9050919050565b6000602082019050818103600083015261190881611663565b9050919050565b6000602082019050818103600083015261192881611686565b9050919050565b60006020820190508181036000830152611948816116a9565b9050919050565b60006020820190508181036000830152611968816116cc565b9050919050565b60006020820190508181036000830152611988816116ef565b9050919050565b60006119996119aa565b90506119a58282611b49565b919050565b6000604051905090565b600067ffffffffffffffff8211156119cf576119ce611c36565b5b6119d882611c83565b9050602081019050919050565b600081519050919050565b600082825260208201905092915050565b600081905092915050565b6000611a1782611ab9565b9150611a2283611ab9565b9250827fffffffffffffffffffffffffffffffffffffffffffffffffffffffffffffffff03821115611a5757611a56611b7a565b5b828201905092915050565b6000611a6d82611a99565b9050919050565b6000611a7f82611a99565b9050919050565b6000819050611a9482611e6e565b919050565b600073ffffffffffffffffffffffffffffffffffffffff82169050919050565b6000819050919050565b6000611ace82611a86565b9050919050565b82818337600083830152505050565b60005b83811015611b02578082015181840152602081019050611ae7565b83811115611b11576000848401525b50505050565b60006002820490506001821680611b2f57607f821691505b60208210811415611b4357611b42611bd8565b5b50919050565b611b5282611c83565b810181811067ffffffffffffffff82111715611b7157611b70611c36565b5b80604052505050565b7f4e487b7100000000000000000000000000000000000000000000000000000000600052601160045260246000fd5b7f4e487b7100000000000000000000000000000000000000000000000000000000600052602160045260246000fd5b7f4e487b7100000000000000000000000000000000000000000000000000000000600052602260045260246000fd5b7f4e487b7100000000000000000000000000000000000000000000000000000000600052603260045260246000fd5b7f4e487b7100000000000000000000000000000000000000000000000000000000600052604160045260246000fd5b600080fd5b600080fd5b600080fd5b600080fd5b600080fd5b600080fd5b6000601f19601f8301169050919050565b7f456c20617574686f72206e6f20707565646520656e766961722064696e65726f60008201527f20612073752070726f70696f2070726f796563746f0000000000000000000000602082015250565b7f456c206f626a657469766f206465626520736572206d61796f72206120300000600082015250565b7f456c206e7565766f2065737461646f2064656c20636f6e747261746f206e6f2060008201527f70756564652073657220696775616c2071756520656c2061637475616c2c203060208201527f203d2061637469766f202f2031203d206365727261646f000000000000000000604082015250565b7f536f6c616d656e746520656c2070726f706965746172696f207075656465206360008201527f657272617220656c20636f6e747261746f000000000000000000000000000000602082015250565b7f456c2076616c6f722061706f727461646f206e6f20707565646520736572206360008201527f65726f206f206d656e6f73000000000000000000000000000000000000000000602082015250565b7f5061726120656e7669617220666f6e646f73206465626520657374617220616260008201527f696572746f20656c20636f6e747261746f000000000000000000000000000000602082015250565b60028110611e7f57611e7e611ba9565b5b50565b60028110611e8f57600080fd5b50565b611e9b81611ab9565b8114611ea657600080fd5b5056fea26469706673582212206724a1e07b6c3bd946f7b1a3233a3fc3904d3741312a3e4be42bd50d382227f264736f6c63430008070033",
  "immutableReferences": {},
  "source": "// SPDX-License-Identifier: GPL-3.0\r\n\r\npragma solidity >=0.8.7 <0.9.0;\r\n\r\ncontract crowFunding {\r\n    \r\n    enum projectState {open, closed}\r\n    \r\n    struct Contribution{\r\n        address contributor;\r\n        uint value;\r\n    }\r\n    \r\n    struct Project {\r\n        string id;\r\n        string name;\r\n        string description;\r\n        address payable author;\r\n        projectState state;\r\n        uint dreamFounds;\r\n        uint totalFunds;\r\n    }\r\n    \r\n\r\n    Project[] public projects;\r\n    \r\n    mapping(string => Contribution[]) public contributions;\r\n\r\n  //  constructor(string memory _id, string memory _name, string memory _description, uint _dreamFounds) {\r\n  //      project = Project(_id, _name, _description, payable(msg.sender), projectState.open, 0, _dreamFounds);\r\n  //      \r\n  //      projectsBuild.push(project);\r\n  //  }\r\n    \r\n\r\n    \r\n    \r\n    event projectCreated(string projectsId, string projectsName, string projectsDescription, uint projectsDreamFounds);\r\n    \r\n    event FundProject(address donador, string projectId, uint donacion, uint gasDonacion);    \r\n\r\n    event ChangeProject(address editor, string projectId, projectState NewState);\r\n    \r\n    modifier noAuthor(uint projectIndex) {\r\n        require(projects[projectIndex].author != msg.sender, \"El author no puede enviar dinero a su propio proyecto\");\r\n        \r\n        require(msg.value > 0, \"El valor aportado no puede ser cero o menos\");\r\n        \r\n        _;  }\r\n        \r\n    modifier onlyAuthor(uint projectIndex) {\r\n        require(projects[projectIndex].author == msg.sender, \"Solamente el propietario puede cerrar el contrato\");\r\n        \r\n        _;\r\n    }    \r\n\r\n    \r\n    function createProject(string calldata id, string calldata name, string calldata description, uint dreamFounds) public {\r\n        require(dreamFounds > 0, \"El objetivo debe ser mayor a 0\");\r\n        Project memory project = Project(id, name, description, payable(msg.sender), projectState.open, dreamFounds, 0);\r\n        projects.push(project);\r\n        emit projectCreated(id, name, description, dreamFounds);\r\n    }\r\n    \r\n\r\n        \r\n    \r\n    function fundProject(uint projectIndex) payable public noAuthor(projectIndex){\r\n        Project memory project = projects[projectIndex];\r\n        require(projects[projectIndex].state == projectState.open, \"Para enviar fondos debe estar abierto el contrato\");\r\n        project.author.transfer(msg.value);\r\n        project.totalFunds += msg.value;\r\n        projects[projectIndex] = project;\r\n        \r\n        contributions[project.id].push(Contribution(msg.sender, msg.value));\r\n        \r\n        emit FundProject(msg.sender, project.id,msg.value, tx.gasprice);\r\n    }\r\n    \r\n\r\n    \r\n    \r\n    function changeProject(projectState newState, uint projectIndex) public onlyAuthor(projectIndex){\r\n        Project memory project = projects[projectIndex];\r\n        require(project.state != newState, \"El nuevo estado del contrato no puede ser igual que el actual, 0 = activo / 1 = cerrado\");\r\n        project.state = newState;\r\n        projects[projectIndex] = project;\r\n        \r\n        emit ChangeProject(msg.sender, project.id, newState);\r\n    }\r\n}",
  "sourcePath": "C:\\Users\\indatech\\Desktop\\CrowFunding\\contracts\\crowFunding.sol",
  "compiler": {
    "name": "solc",
    "version": "0.8.7+commit.e28d00a7.Emscripten.clang"
  },
  "schemaVersion": "3.4.3",
  "updatedAt": "2021-11-20T15:14:29.962Z",
  "devdoc": {
    "kind": "dev",
    "methods": {},
    "version": 1
  },
  "userdoc": {
    "kind": "user",
    "methods": {},
    "version": 1
  }
}